{
  "_format": "hh-sol-artifact-1",
  "contractName": "CertificateNFT",
  "sourceName": "contracts/CertificateNFT.sol",
  "abi": [
    {
      "inputs": [],
      "stateMutability": "nonpayable",
      "type": "constructor"
    },
    {
      "inputs": [
        {
          "internalType": "address",
          "name": "sender",
          "type": "address"
        },
        {
          "internalType": "uint256",
          "name": "tokenId",
          "type": "uint256"
        },
        {
          "internalType": "address",
          "name": "owner",
          "type": "address"
        }
      ],
      "name": "ERC721IncorrectOwner",
      "type": "error"
    },
    {
      "inputs": [
        {
          "internalType": "address",
          "name": "operator",
          "type": "address"
        },
        {
          "internalType": "uint256",
          "name": "tokenId",
          "type": "uint256"
        }
      ],
      "name": "ERC721InsufficientApproval",
      "type": "error"
    },
    {
      "inputs": [
        {
          "internalType": "address",
          "name": "approver",
          "type": "address"
        }
      ],
      "name": "ERC721InvalidApprover",
      "type": "error"
    },
    {
      "inputs": [
        {
          "internalType": "address",
          "name": "operator",
          "type": "address"
        }
      ],
      "name": "ERC721InvalidOperator",
      "type": "error"
    },
    {
      "inputs": [
        {
          "internalType": "address",
          "name": "owner",
          "type": "address"
        }
      ],
      "name": "ERC721InvalidOwner",
      "type": "error"
    },
    {
      "inputs": [
        {
          "internalType": "address",
          "name": "receiver",
          "type": "address"
        }
      ],
      "name": "ERC721InvalidReceiver",
      "type": "error"
    },
    {
      "inputs": [
        {
          "internalType": "address",
          "name": "sender",
          "type": "address"
        }
      ],
      "name": "ERC721InvalidSender",
      "type": "error"
    },
    {
      "inputs": [
        {
          "internalType": "uint256",
          "name": "tokenId",
          "type": "uint256"
        }
      ],
      "name": "ERC721NonexistentToken",
      "type": "error"
    },
    {
      "inputs": [
        {
          "internalType": "address",
          "name": "owner",
          "type": "address"
        }
      ],
      "name": "OwnableInvalidOwner",
      "type": "error"
    },
    {
      "inputs": [
        {
          "internalType": "address",
          "name": "account",
          "type": "address"
        }
      ],
      "name": "OwnableUnauthorizedAccount",
      "type": "error"
    },
    {
      "anonymous": false,
      "inputs": [
        {
          "indexed": true,
          "internalType": "address",
          "name": "owner",
          "type": "address"
        },
        {
          "indexed": true,
          "internalType": "address",
          "name": "approved",
          "type": "address"
        },
        {
          "indexed": true,
          "internalType": "uint256",
          "name": "tokenId",
          "type": "uint256"
        }
      ],
      "name": "Approval",
      "type": "event"
    },
    {
      "anonymous": false,
      "inputs": [
        {
          "indexed": true,
          "internalType": "address",
          "name": "owner",
          "type": "address"
        },
        {
          "indexed": true,
          "internalType": "address",
          "name": "operator",
          "type": "address"
        },
        {
          "indexed": false,
          "internalType": "bool",
          "name": "approved",
          "type": "bool"
        }
      ],
      "name": "ApprovalForAll",
      "type": "event"
    },
    {
      "anonymous": false,
      "inputs": [
        {
          "indexed": false,
          "internalType": "uint256",
          "name": "_fromTokenId",
          "type": "uint256"
        },
        {
          "indexed": false,
          "internalType": "uint256",
          "name": "_toTokenId",
          "type": "uint256"
        }
      ],
      "name": "BatchMetadataUpdate",
      "type": "event"
    },
    {
      "anonymous": false,
      "inputs": [
        {
          "indexed": true,
          "internalType": "address",
          "name": "student",
          "type": "address"
        },
        {
          "indexed": true,
          "internalType": "uint256",
          "name": "tokenId",
          "type": "uint256"
        },
        {
          "indexed": false,
          "internalType": "string",
          "name": "tokenURI",
          "type": "string"
        }
      ],
      "name": "CertificateMinted",
      "type": "event"
    },
    {
      "anonymous": false,
      "inputs": [
        {
          "indexed": true,
          "internalType": "uint256",
          "name": "tokenId",
          "type": "uint256"
        }
      ],
      "name": "CertificateRevoked",
      "type": "event"
    },
    {
      "anonymous": false,
      "inputs": [
        {
          "indexed": false,
          "internalType": "uint256",
          "name": "_tokenId",
          "type": "uint256"
        }
      ],
      "name": "MetadataUpdate",
      "type": "event"
    },
    {
      "anonymous": false,
      "inputs": [
        {
          "indexed": true,
          "internalType": "address",
          "name": "previousOwner",
          "type": "address"
        },
        {
          "indexed": true,
          "internalType": "address",
          "name": "newOwner",
          "type": "address"
        }
      ],
      "name": "OwnershipTransferred",
      "type": "event"
    },
    {
      "anonymous": false,
      "inputs": [
        {
          "indexed": true,
          "internalType": "address",
          "name": "from",
          "type": "address"
        },
        {
          "indexed": true,
          "internalType": "address",
          "name": "to",
          "type": "address"
        },
        {
          "indexed": true,
          "internalType": "uint256",
          "name": "tokenId",
          "type": "uint256"
        }
      ],
      "name": "Transfer",
      "type": "event"
    },
    {
      "inputs": [
        {
          "internalType": "address",
          "name": "to",
          "type": "address"
        },
        {
          "internalType": "uint256",
          "name": "tokenId",
          "type": "uint256"
        }
      ],
      "name": "approve",
      "outputs": [],
      "stateMutability": "nonpayable",
      "type": "function"
    },
    {
      "inputs": [
        {
          "internalType": "address",
          "name": "owner",
          "type": "address"
        }
      ],
      "name": "balanceOf",
      "outputs": [
        {
          "internalType": "uint256",
          "name": "",
          "type": "uint256"
        }
      ],
      "stateMutability": "view",
      "type": "function"
    },
    {
      "inputs": [
        {
          "internalType": "uint256",
          "name": "tokenId",
          "type": "uint256"
        }
      ],
      "name": "getApproved",
      "outputs": [
        {
          "internalType": "address",
          "name": "",
          "type": "address"
        }
      ],
      "stateMutability": "view",
      "type": "function"
    },
    {
      "inputs": [
        {
          "internalType": "address",
          "name": "owner",
          "type": "address"
        }
      ],
      "name": "getCertificatesByOwner",
      "outputs": [
        {
          "internalType": "uint256[]",
          "name": "",
          "type": "uint256[]"
        }
      ],
      "stateMutability": "view",
      "type": "function"
    },
    {
      "inputs": [
        {
          "internalType": "address",
          "name": "owner",
          "type": "address"
        },
        {
          "internalType": "address",
          "name": "operator",
          "type": "address"
        }
      ],
      "name": "isApprovedForAll",
      "outputs": [
        {
          "internalType": "bool",
          "name": "",
          "type": "bool"
        }
      ],
      "stateMutability": "view",
      "type": "function"
    },
    {
      "inputs": [
        {
          "internalType": "uint256",
          "name": "tokenId",
          "type": "uint256"
        }
      ],
      "name": "isRevoked",
      "outputs": [
        {
          "internalType": "bool",
          "name": "",
          "type": "bool"
        }
      ],
      "stateMutability": "view",
      "type": "function"
    },
    {
      "inputs": [
        {
          "internalType": "address",
          "name": "student",
          "type": "address"
        },
        {
          "internalType": "string",
          "name": "uri",
          "type": "string"
        }
      ],
      "name": "mintCertificate",
      "outputs": [
        {
          "internalType": "uint256",
          "name": "",
          "type": "uint256"
        }
      ],
      "stateMutability": "nonpayable",
      "type": "function"
    },
    {
      "inputs": [],
      "name": "name",
      "outputs": [
        {
          "internalType": "string",
          "name": "",
          "type": "string"
        }
      ],
      "stateMutability": "view",
      "type": "function"
    },
    {
      "inputs": [],
      "name": "owner",
      "outputs": [
        {
          "internalType": "address",
          "name": "",
          "type": "address"
        }
      ],
      "stateMutability": "view",
      "type": "function"
    },
    {
      "inputs": [
        {
          "internalType": "uint256",
          "name": "tokenId",
          "type": "uint256"
        }
      ],
      "name": "ownerOf",
      "outputs": [
        {
          "internalType": "address",
          "name": "",
          "type": "address"
        }
      ],
      "stateMutability": "view",
      "type": "function"
    },
    {
      "inputs": [],
      "name": "renounceOwnership",
      "outputs": [],
      "stateMutability": "nonpayable",
      "type": "function"
    },
    {
      "inputs": [
        {
          "internalType": "uint256",
          "name": "tokenId",
          "type": "uint256"
        }
      ],
      "name": "revokeCertificate",
      "outputs": [],
      "stateMutability": "nonpayable",
      "type": "function"
    },
    {
      "inputs": [
        {
          "internalType": "uint256",
          "name": "",
          "type": "uint256"
        }
      ],
      "name": "revokedCertificates",
      "outputs": [
        {
          "internalType": "bool",
          "name": "",
          "type": "bool"
        }
      ],
      "stateMutability": "view",
      "type": "function"
    },
    {
      "inputs": [
        {
          "internalType": "address",
          "name": "from",
          "type": "address"
        },
        {
          "internalType": "address",
          "name": "to",
          "type": "address"
        },
        {
          "internalType": "uint256",
          "name": "tokenId",
          "type": "uint256"
        }
      ],
      "name": "safeTransferFrom",
      "outputs": [],
      "stateMutability": "nonpayable",
      "type": "function"
    },
    {
      "inputs": [
        {
          "internalType": "address",
          "name": "from",
          "type": "address"
        },
        {
          "internalType": "address",
          "name": "to",
          "type": "address"
        },
        {
          "internalType": "uint256",
          "name": "tokenId",
          "type": "uint256"
        },
        {
          "internalType": "bytes",
          "name": "data",
          "type": "bytes"
        }
      ],
      "name": "safeTransferFrom",
      "outputs": [],
      "stateMutability": "nonpayable",
      "type": "function"
    },
    {
      "inputs": [
        {
          "internalType": "address",
          "name": "operator",
          "type": "address"
        },
        {
          "internalType": "bool",
          "name": "approved",
          "type": "bool"
        }
      ],
      "name": "setApprovalForAll",
      "outputs": [],
      "stateMutability": "nonpayable",
      "type": "function"
    },
    {
      "inputs": [
        {
          "internalType": "bytes4",
          "name": "interfaceId",
          "type": "bytes4"
        }
      ],
      "name": "supportsInterface",
      "outputs": [
        {
          "internalType": "bool",
          "name": "",
          "type": "bool"
        }
      ],
      "stateMutability": "view",
      "type": "function"
    },
    {
      "inputs": [],
      "name": "symbol",
      "outputs": [
        {
          "internalType": "string",
          "name": "",
          "type": "string"
        }
      ],
      "stateMutability": "view",
      "type": "function"
    },
    {
      "inputs": [
        {
          "internalType": "uint256",
          "name": "tokenId",
          "type": "uint256"
        }
      ],
      "name": "tokenURI",
      "outputs": [
        {
          "internalType": "string",
          "name": "",
          "type": "string"
        }
      ],
      "stateMutability": "view",
      "type": "function"
    },
    {
      "inputs": [
        {
          "internalType": "address",
          "name": "from",
          "type": "address"
        },
        {
          "internalType": "address",
          "name": "to",
          "type": "address"
        },
        {
          "internalType": "uint256",
          "name": "tokenId",
          "type": "uint256"
        }
      ],
      "name": "transferFrom",
      "outputs": [],
      "stateMutability": "nonpayable",
      "type": "function"
    },
    {
      "inputs": [
        {
          "internalType": "address",
          "name": "newOwner",
          "type": "address"
        }
      ],
      "name": "transferOwnership",
      "outputs": [],
      "stateMutability": "nonpayable",
      "type": "function"
    }
  ],
  "bytecode": "0x60806040523480156200001157600080fd5b50336040518060400160405280600b81526020017f43657274696669636174650000000000000000000000000000000000000000008152506040518060400160405280600481526020017f4345525400000000000000000000000000000000000000000000000000000000815250816000908162000090919062000472565b508060019081620000a2919062000472565b505050600073ffffffffffffffffffffffffffffffffffffffff168173ffffffffffffffffffffffffffffffffffffffff16036200011a5760006040517f1e4fbdf70000000000000000000000000000000000000000000000000000000081526004016200011191906200059e565b60405180910390fd5b6200012b816200013260201b60201c565b50620005bb565b6000600760009054906101000a900473ffffffffffffffffffffffffffffffffffffffff16905081600760006101000a81548173ffffffffffffffffffffffffffffffffffffffff021916908373ffffffffffffffffffffffffffffffffffffffff1602179055508173ffffffffffffffffffffffffffffffffffffffff168173ffffffffffffffffffffffffffffffffffffffff167f8be0079c531659141344cd1fd0a4f28419497f9722a3daafe3b4186f6b6457e060405160405180910390a35050565b600081519050919050565b7f4e487b7100000000000000000000000000000000000000000000000000000000600052604160045260246000fd5b7f4e487b7100000000000000000000000000000000000000000000000000000000600052602260045260246000fd5b600060028204905060018216806200027a57607f821691505b60208210810362000290576200028f62000232565b5b50919050565b60008190508160005260206000209050919050565b60006020601f8301049050919050565b600082821b905092915050565b600060088302620002fa7fffffffffffffffffffffffffffffffffffffffffffffffffffffffffffffffff82620002bb565b620003068683620002bb565b95508019841693508086168417925050509392505050565b6000819050919050565b6000819050919050565b6000620003536200034d62000347846200031e565b62000328565b6200031e565b9050919050565b6000819050919050565b6200036f8362000332565b620003876200037e826200035a565b848454620002c8565b825550505050565b600090565b6200039e6200038f565b620003ab81848462000364565b505050565b5b81811015620003d357620003c760008262000394565b600181019050620003b1565b5050565b601f8211156200042257620003ec8162000296565b620003f784620002ab565b8101602085101562000407578190505b6200041f6200041685620002ab565b830182620003b0565b50505b505050565b600082821c905092915050565b6000620004476000198460080262000427565b1980831691505092915050565b600062000462838362000434565b9150826002028217905092915050565b6200047d82620001f8565b67ffffffffffffffff81111562000499576200049862000203565b5b620004a5825462000261565b620004b2828285620003d7565b600060209050601f831160018114620004ea5760008415620004d5578287015190505b620004e1858262000454565b86555062000551565b601f198416620004fa8662000296565b60005b828110156200052457848901518255600182019150602085019450602081019050620004fd565b8683101562000544578489015162000540601f89168262000434565b8355505b6001600288020188555050505b505050505050565b600073ffffffffffffffffffffffffffffffffffffffff82169050919050565b6000620005868262000559565b9050919050565b620005988162000579565b82525050565b6000602082019050620005b560008301846200058d565b92915050565b612db580620005cb6000396000f3fe608060405234801561001057600080fd5b50600436106101375760003560e01c80635ccc561e116100b857806395d89b411161007c57806395d89b4114610372578063a22cb46514610390578063b88d4fde146103ac578063c87b56dd146103c8578063e985e9c5146103f8578063f2fde38b1461042857610137565b80635ccc561e146102ba5780636352211e146102ea57806370a082311461031a578063715018a61461034a5780638da5cb5b1461035457610137565b8063095ea7b3116100ff578063095ea7b3146102065780631db738401461022257806323b872dd146102525780633041bcf91461026e57806342842e0e1461029e57610137565b806301ffc9a71461013c57806306f5497e1461016c57806306fdde03146101885780630712249f146101a6578063081812fc146101d6575b600080fd5b61015660048036038101906101519190611f4e565b610444565b6040516101639190611f96565b60405180910390f35b61018660048036038101906101819190611fe7565b610456565b005b610190610592565b60405161019d91906120a4565b60405180910390f35b6101c060048036038101906101bb9190612259565b610624565b6040516101cd91906122c4565b60405180910390f35b6101f060048036038101906101eb9190611fe7565b610769565b6040516101fd91906122ee565b60405180910390f35b610220600480360381019061021b9190612309565b610785565b005b61023c60048036038101906102379190612349565b61079b565b6040516102499190612434565b60405180910390f35b61026c60048036038101906102679190612456565b61088e565b005b61028860048036038101906102839190611fe7565b610990565b6040516102959190611f96565b60405180910390f35b6102b860048036038101906102b39190612456565b6109b0565b005b6102d460048036038101906102cf9190611fe7565b6109d0565b6040516102e19190611f96565b60405180910390f35b61030460048036038101906102ff9190611fe7565b6109fa565b60405161031191906122ee565b60405180910390f35b610334600480360381019061032f9190612349565b610a0c565b60405161034191906122c4565b60405180910390f35b610352610ac6565b005b61035c610ada565b60405161036991906122ee565b60405180910390f35b61037a610b04565b60405161038791906120a4565b60405180910390f35b6103aa60048036038101906103a591906124d5565b610b96565b005b6103c660048036038101906103c191906125b6565b610bac565b005b6103e260048036038101906103dd9190611fe7565b610bd1565b6040516103ef91906120a4565b60405180910390f35b610412600480360381019061040d9190612639565b610be3565b60405161041f9190611f96565b60405180910390f35b610442600480360381019061043d9190612349565b610c77565b005b600061044f82610cfd565b9050919050565b61045e610d5e565b600073ffffffffffffffffffffffffffffffffffffffff1661047f82610de5565b73ffffffffffffffffffffffffffffffffffffffff16036104d5576040517f08c379a00000000000000000000000000000000000000000000000000000000081526004016104cc906126c5565b60405180910390fd5b6009600082815260200190815260200160002060009054906101000a900460ff1615610536576040517f08c379a000000000000000000000000000000000000000000000000000000000815260040161052d90612731565b60405180910390fd5b60016009600083815260200190815260200160002060006101000a81548160ff021916908315150217905550807fefa6c5f47ac2523bb4db18032377bf7fdce0fa9d86eddcae1ca9bba38be615d760405160405180910390a250565b6060600080546105a190612780565b80601f01602080910402602001604051908101604052809291908181526020018280546105cd90612780565b801561061a5780601f106105ef5761010080835404028352916020019161061a565b820191906000526020600020905b8154815290600101906020018083116105fd57829003601f168201915b5050505050905090565b600061062e610d5e565b600073ffffffffffffffffffffffffffffffffffffffff168373ffffffffffffffffffffffffffffffffffffffff160361069d576040517f08c379a0000000000000000000000000000000000000000000000000000000008152600401610694906127fd565b60405180910390fd5b60008251116106e1576040517f08c379a00000000000000000000000000000000000000000000000000000000081526004016106d890612869565b60405180910390fd5b6000600860008154809291906106f6906128b8565b9190505590506107068482610e22565b6107108184610e40565b808473ffffffffffffffffffffffffffffffffffffffff167fde5d6fd45e32fffb472bcbaeedf6a2e3944633c9701eec7d99adfa07ad6104c18560405161075791906120a4565b60405180910390a38091505092915050565b600061077482610e9c565b5061077e82610f24565b9050919050565b6107978282610792610f61565b610f69565b5050565b606060006107a883610a0c565b905060008167ffffffffffffffff8111156107c6576107c561212e565b5b6040519080825280602002602001820160405280156107f45781602001602082028036833780820191505090505b5090506000805b600854811015610882578573ffffffffffffffffffffffffffffffffffffffff1661082582610de5565b73ffffffffffffffffffffffffffffffffffffffff160361086f578083838151811061085457610853612900565b5b602002602001018181525050818061086b906128b8565b9250505b808061087a906128b8565b9150506107fb565b50819350505050919050565b600073ffffffffffffffffffffffffffffffffffffffff168273ffffffffffffffffffffffffffffffffffffffff16036109005760006040517f64a0ae920000000000000000000000000000000000000000000000000000000081526004016108f791906122ee565b60405180910390fd5b6000610914838361090f610f61565b610f7b565b90508373ffffffffffffffffffffffffffffffffffffffff168173ffffffffffffffffffffffffffffffffffffffff161461098a578382826040517f64283d7b0000000000000000000000000000000000000000000000000000000081526004016109819392919061292f565b60405180910390fd5b50505050565b60096020528060005260406000206000915054906101000a900460ff1681565b6109cb83838360405180602001604052806000815250610bac565b505050565b60006009600083815260200190815260200160002060009054906101000a900460ff169050919050565b6000610a0582610e9c565b9050919050565b60008073ffffffffffffffffffffffffffffffffffffffff168273ffffffffffffffffffffffffffffffffffffffff1603610a7f5760006040517f89c62b64000000000000000000000000000000000000000000000000000000008152600401610a7691906122ee565b60405180910390fd5b600360008373ffffffffffffffffffffffffffffffffffffffff1673ffffffffffffffffffffffffffffffffffffffff168152602001908152602001600020549050919050565b610ace610d5e565b610ad86000611195565b565b6000600760009054906101000a900473ffffffffffffffffffffffffffffffffffffffff16905090565b606060018054610b1390612780565b80601f0160208091040260200160405190810160405280929190818152602001828054610b3f90612780565b8015610b8c5780601f10610b6157610100808354040283529160200191610b8c565b820191906000526020600020905b815481529060010190602001808311610b6f57829003601f168201915b5050505050905090565b610ba8610ba1610f61565b838361125b565b5050565b610bb784848461088e565b610bcb610bc2610f61565b858585856113ca565b50505050565b6060610bdc8261157b565b9050919050565b6000600560008473ffffffffffffffffffffffffffffffffffffffff1673ffffffffffffffffffffffffffffffffffffffff16815260200190815260200160002060008373ffffffffffffffffffffffffffffffffffffffff1673ffffffffffffffffffffffffffffffffffffffff16815260200190815260200160002060009054906101000a900460ff16905092915050565b610c7f610d5e565b600073ffffffffffffffffffffffffffffffffffffffff168173ffffffffffffffffffffffffffffffffffffffff1603610cf15760006040517f1e4fbdf7000000000000000000000000000000000000000000000000000000008152600401610ce891906122ee565b60405180910390fd5b610cfa81611195565b50565b6000634906490660e01b7bffffffffffffffffffffffffffffffffffffffffffffffffffffffff1916827bffffffffffffffffffffffffffffffffffffffffffffffffffffffff19161480610d575750610d568261168e565b5b9050919050565b610d66610f61565b73ffffffffffffffffffffffffffffffffffffffff16610d84610ada565b73ffffffffffffffffffffffffffffffffffffffff1614610de357610da7610f61565b6040517f118cdaa7000000000000000000000000000000000000000000000000000000008152600401610dda91906122ee565b60405180910390fd5b565b60006002600083815260200190815260200160002060009054906101000a900473ffffffffffffffffffffffffffffffffffffffff169050919050565b610e3c828260405180602001604052806000815250611770565b5050565b80600660008481526020019081526020016000209081610e609190612b12565b507ff8e1a15aba9398e019f0b49df1a4fde98ee17ae345cb5f6b5e2c27f5033e8ce782604051610e9091906122c4565b60405180910390a15050565b600080610ea883610de5565b9050600073ffffffffffffffffffffffffffffffffffffffff168173ffffffffffffffffffffffffffffffffffffffff1603610f1b57826040517f7e273289000000000000000000000000000000000000000000000000000000008152600401610f1291906122c4565b60405180910390fd5b80915050919050565b60006004600083815260200190815260200160002060009054906101000a900473ffffffffffffffffffffffffffffffffffffffff169050919050565b600033905090565b610f768383836001611794565b505050565b600080610f8784610de5565b9050600073ffffffffffffffffffffffffffffffffffffffff168373ffffffffffffffffffffffffffffffffffffffff1614610fc957610fc8818486611959565b5b600073ffffffffffffffffffffffffffffffffffffffff168173ffffffffffffffffffffffffffffffffffffffff161461105a5761100b600085600080611794565b6001600360008373ffffffffffffffffffffffffffffffffffffffff1673ffffffffffffffffffffffffffffffffffffffff168152602001908152602001600020600082825403925050819055505b600073ffffffffffffffffffffffffffffffffffffffff168573ffffffffffffffffffffffffffffffffffffffff16146110dd576001600360008773ffffffffffffffffffffffffffffffffffffffff1673ffffffffffffffffffffffffffffffffffffffff168152602001908152602001600020600082825401925050819055505b846002600086815260200190815260200160002060006101000a81548173ffffffffffffffffffffffffffffffffffffffff021916908373ffffffffffffffffffffffffffffffffffffffff160217905550838573ffffffffffffffffffffffffffffffffffffffff168273ffffffffffffffffffffffffffffffffffffffff167fddf252ad1be2c89b69c2b068fc378daa952ba7f163c4a11628f55a4df523b3ef60405160405180910390a4809150509392505050565b6000600760009054906101000a900473ffffffffffffffffffffffffffffffffffffffff16905081600760006101000a81548173ffffffffffffffffffffffffffffffffffffffff021916908373ffffffffffffffffffffffffffffffffffffffff1602179055508173ffffffffffffffffffffffffffffffffffffffff168173ffffffffffffffffffffffffffffffffffffffff167f8be0079c531659141344cd1fd0a4f28419497f9722a3daafe3b4186f6b6457e060405160405180910390a35050565b600073ffffffffffffffffffffffffffffffffffffffff168273ffffffffffffffffffffffffffffffffffffffff16036112cc57816040517f5b08ba180000000000000000000000000000000000000000000000000000000081526004016112c391906122ee565b60405180910390fd5b80600560008573ffffffffffffffffffffffffffffffffffffffff1673ffffffffffffffffffffffffffffffffffffffff16815260200190815260200160002060008473ffffffffffffffffffffffffffffffffffffffff1673ffffffffffffffffffffffffffffffffffffffff16815260200190815260200160002060006101000a81548160ff0219169083151502179055508173ffffffffffffffffffffffffffffffffffffffff168373ffffffffffffffffffffffffffffffffffffffff167f17307eab39ab6107e8899845ad3d59bd9653f200f220920489ca2b5937696c31836040516113bd9190611f96565b60405180910390a3505050565b60008373ffffffffffffffffffffffffffffffffffffffff163b1115611574578273ffffffffffffffffffffffffffffffffffffffff1663150b7a02868685856040518563ffffffff1660e01b81526004016114299493929190612c39565b6020604051808303816000875af192505050801561146557506040513d601f19601f820116820180604052508101906114629190612c9a565b60015b6114e9573d8060008114611495576040519150601f19603f3d011682016040523d82523d6000602084013e61149a565b606091505b5060008151036114e157836040517f64a0ae920000000000000000000000000000000000000000000000000000000081526004016114d891906122ee565b60405180910390fd5b805160208201fd5b63150b7a0260e01b7bffffffffffffffffffffffffffffffffffffffffffffffffffffffff1916817bffffffffffffffffffffffffffffffffffffffffffffffffffffffff19161461157257836040517f64a0ae9200000000000000000000000000000000000000000000000000000000815260040161156991906122ee565b60405180910390fd5b505b5050505050565b606061158682610e9c565b5060006006600084815260200190815260200160002080546115a790612780565b80601f01602080910402602001604051908101604052809291908181526020018280546115d390612780565b80156116205780601f106115f557610100808354040283529160200191611620565b820191906000526020600020905b81548152906001019060200180831161160357829003601f168201915b505050505090506000611631611a1d565b90506000815103611646578192505050611689565b60008251111561167b578082604051602001611663929190612d03565b60405160208183030381529060405292505050611689565b61168484611a34565b925050505b919050565b60007f80ac58cd000000000000000000000000000000000000000000000000000000007bffffffffffffffffffffffffffffffffffffffffffffffffffffffff1916827bffffffffffffffffffffffffffffffffffffffffffffffffffffffff1916148061175957507f5b5e139f000000000000000000000000000000000000000000000000000000007bffffffffffffffffffffffffffffffffffffffffffffffffffffffff1916827bffffffffffffffffffffffffffffffffffffffffffffffffffffffff1916145b80611769575061176882611a9d565b5b9050919050565b61177a8383611b07565b61178f611785610f61565b60008585856113ca565b505050565b80806117cd5750600073ffffffffffffffffffffffffffffffffffffffff168273ffffffffffffffffffffffffffffffffffffffff1614155b156119015760006117dd84610e9c565b9050600073ffffffffffffffffffffffffffffffffffffffff168373ffffffffffffffffffffffffffffffffffffffff161415801561184857508273ffffffffffffffffffffffffffffffffffffffff168173ffffffffffffffffffffffffffffffffffffffff1614155b801561185b57506118598184610be3565b155b1561189d57826040517fa9fbf51f00000000000000000000000000000000000000000000000000000000815260040161189491906122ee565b60405180910390fd5b81156118ff57838573ffffffffffffffffffffffffffffffffffffffff168273ffffffffffffffffffffffffffffffffffffffff167f8c5be1e5ebec7d5bd14f71427d1e84f3dd0314c0f7b2291e5b200ac8c7c3b92560405160405180910390a45b505b836004600085815260200190815260200160002060006101000a81548173ffffffffffffffffffffffffffffffffffffffff021916908373ffffffffffffffffffffffffffffffffffffffff16021790555050505050565b611964838383611c00565b611a1857600073ffffffffffffffffffffffffffffffffffffffff168373ffffffffffffffffffffffffffffffffffffffff16036119d957806040517f7e2732890000000000000000000000000000000000000000000000000000000081526004016119d091906122c4565b60405180910390fd5b81816040517f177e802f000000000000000000000000000000000000000000000000000000008152600401611a0f929190612d27565b60405180910390fd5b505050565b606060405180602001604052806000815250905090565b6060611a3f82610e9c565b506000611a4a611a1d565b90506000815111611a6a5760405180602001604052806000815250611a95565b80611a7484611cc1565b604051602001611a85929190612d03565b6040516020818303038152906040525b915050919050565b60007f01ffc9a7000000000000000000000000000000000000000000000000000000007bffffffffffffffffffffffffffffffffffffffffffffffffffffffff1916827bffffffffffffffffffffffffffffffffffffffffffffffffffffffff1916149050919050565b600073ffffffffffffffffffffffffffffffffffffffff168273ffffffffffffffffffffffffffffffffffffffff1603611b795760006040517f64a0ae92000000000000000000000000000000000000000000000000000000008152600401611b7091906122ee565b60405180910390fd5b6000611b8783836000610f7b565b9050600073ffffffffffffffffffffffffffffffffffffffff168173ffffffffffffffffffffffffffffffffffffffff1614611bfb5760006040517f73c6ac6e000000000000000000000000000000000000000000000000000000008152600401611bf291906122ee565b60405180910390fd5b505050565b60008073ffffffffffffffffffffffffffffffffffffffff168373ffffffffffffffffffffffffffffffffffffffff1614158015611cb857508273ffffffffffffffffffffffffffffffffffffffff168473ffffffffffffffffffffffffffffffffffffffff161480611c795750611c788484610be3565b5b80611cb757508273ffffffffffffffffffffffffffffffffffffffff16611c9f83610f24565b73ffffffffffffffffffffffffffffffffffffffff16145b5b90509392505050565b606060006001611cd084611d8f565b01905060008167ffffffffffffffff811115611cef57611cee61212e565b5b6040519080825280601f01601f191660200182016040528015611d215781602001600182028036833780820191505090505b509050600082602083010190505b600115611d84578080600190039150507f3031323334353637383961626364656600000000000000000000000000000000600a86061a8153600a8581611d7857611d77612d50565b5b04945060008503611d2f575b819350505050919050565b600080600090507a184f03e93ff9f4daa797ed6e38ed64bf6a1f0100000000000000008310611ded577a184f03e93ff9f4daa797ed6e38ed64bf6a1f0100000000000000008381611de357611de2612d50565b5b0492506040810190505b6d04ee2d6d415b85acef81000000008310611e2a576d04ee2d6d415b85acef81000000008381611e2057611e1f612d50565b5b0492506020810190505b662386f26fc100008310611e5957662386f26fc100008381611e4f57611e4e612d50565b5b0492506010810190505b6305f5e1008310611e82576305f5e1008381611e7857611e77612d50565b5b0492506008810190505b6127108310611ea7576127108381611e9d57611e9c612d50565b5b0492506004810190505b60648310611eca5760648381611ec057611ebf612d50565b5b0492506002810190505b600a8310611ed9576001810190505b80915050919050565b6000604051905090565b600080fd5b600080fd5b60007fffffffff0000000000000000000000000000000000000000000000000000000082169050919050565b611f2b81611ef6565b8114611f3657600080fd5b50565b600081359050611f4881611f22565b92915050565b600060208284031215611f6457611f63611eec565b5b6000611f7284828501611f39565b91505092915050565b60008115159050919050565b611f9081611f7b565b82525050565b6000602082019050611fab6000830184611f87565b92915050565b6000819050919050565b611fc481611fb1565b8114611fcf57600080fd5b50565b600081359050611fe181611fbb565b92915050565b600060208284031215611ffd57611ffc611eec565b5b600061200b84828501611fd2565b91505092915050565b600081519050919050565b600082825260208201905092915050565b60005b8381101561204e578082015181840152602081019050612033565b60008484015250505050565b6000601f19601f8301169050919050565b600061207682612014565b612080818561201f565b9350612090818560208601612030565b6120998161205a565b840191505092915050565b600060208201905081810360008301526120be818461206b565b905092915050565b600073ffffffffffffffffffffffffffffffffffffffff82169050919050565b60006120f1826120c6565b9050919050565b612101816120e6565b811461210c57600080fd5b50565b60008135905061211e816120f8565b92915050565b600080fd5b600080fd5b7f4e487b7100000000000000000000000000000000000000000000000000000000600052604160045260246000fd5b6121668261205a565b810181811067ffffffffffffffff821117156121855761218461212e565b5b80604052505050565b6000612198611ee2565b90506121a4828261215d565b919050565b600067ffffffffffffffff8211156121c4576121c361212e565b5b6121cd8261205a565b9050602081019050919050565b82818337600083830152505050565b60006121fc6121f7846121a9565b61218e565b90508281526020810184848401111561221857612217612129565b5b6122238482856121da565b509392505050565b600082601f8301126122405761223f612124565b5b81356122508482602086016121e9565b91505092915050565b600080604083850312156122705761226f611eec565b5b600061227e8582860161210f565b925050602083013567ffffffffffffffff81111561229f5761229e611ef1565b5b6122ab8582860161222b565b9150509250929050565b6122be81611fb1565b82525050565b60006020820190506122d960008301846122b5565b92915050565b6122e8816120e6565b82525050565b600060208201905061230360008301846122df565b92915050565b600080604083850312156123205761231f611eec565b5b600061232e8582860161210f565b925050602061233f85828601611fd2565b9150509250929050565b60006020828403121561235f5761235e611eec565b5b600061236d8482850161210f565b91505092915050565b600081519050919050565b600082825260208201905092915050565b6000819050602082019050919050565b6123ab81611fb1565b82525050565b60006123bd83836123a2565b60208301905092915050565b6000602082019050919050565b60006123e182612376565b6123eb8185612381565b93506123f683612392565b8060005b8381101561242757815161240e88826123b1565b9750612419836123c9565b9250506001810190506123fa565b5085935050505092915050565b6000602082019050818103600083015261244e81846123d6565b905092915050565b60008060006060848603121561246f5761246e611eec565b5b600061247d8682870161210f565b935050602061248e8682870161210f565b925050604061249f86828701611fd2565b9150509250925092565b6124b281611f7b565b81146124bd57600080fd5b50565b6000813590506124cf816124a9565b92915050565b600080604083850312156124ec576124eb611eec565b5b60006124fa8582860161210f565b925050602061250b858286016124c0565b9150509250929050565b600067ffffffffffffffff8211156125305761252f61212e565b5b6125398261205a565b9050602081019050919050565b600061255961255484612515565b61218e565b90508281526020810184848401111561257557612574612129565b5b6125808482856121da565b509392505050565b600082601f83011261259d5761259c612124565b5b81356125ad848260208601612546565b91505092915050565b600080600080608085870312156125d0576125cf611eec565b5b60006125de8782880161210f565b94505060206125ef8782880161210f565b935050604061260087828801611fd2565b925050606085013567ffffffffffffffff81111561262157612620611ef1565b5b61262d87828801612588565b91505092959194509250565b600080604083850312156126505761264f611eec565b5b600061265e8582860161210f565b925050602061266f8582860161210f565b9150509250929050565b7f436572746966696361746520646f6573206e6f74206578697374000000000000600082015250565b60006126af601a8361201f565b91506126ba82612679565b602082019050919050565b600060208201905081810360008301526126de816126a2565b9050919050565b7f436572746966696361746520616c7265616479207265766f6b65640000000000600082015250565b600061271b601b8361201f565b9150612726826126e5565b602082019050919050565b6000602082019050818103600083015261274a8161270e565b9050919050565b7f4e487b7100000000000000000000000000000000000000000000000000000000600052602260045260246000fd5b6000600282049050600182168061279857607f821691505b6020821081036127ab576127aa612751565b5b50919050565b7f496e76616c69642073747564656e742061646472657373000000000000000000600082015250565b60006127e760178361201f565b91506127f2826127b1565b602082019050919050565b60006020820190508181036000830152612816816127da565b9050919050565b7f546f6b656e205552492063616e6e6f7420626520656d70747900000000000000600082015250565b600061285360198361201f565b915061285e8261281d565b602082019050919050565b6000602082019050818103600083015261288281612846565b9050919050565b7f4e487b7100000000000000000000000000000000000000000000000000000000600052601160045260246000fd5b60006128c382611fb1565b91507fffffffffffffffffffffffffffffffffffffffffffffffffffffffffffffffff82036128f5576128f4612889565b5b600182019050919050565b7f4e487b7100000000000000000000000000000000000000000000000000000000600052603260045260246000fd5b600060608201905061294460008301866122df565b61295160208301856122b5565b61295e60408301846122df565b949350505050565b60008190508160005260206000209050919050565b60006020601f8301049050919050565b600082821b905092915050565b6000600883026129c87fffffffffffffffffffffffffffffffffffffffffffffffffffffffffffffffff8261298b565b6129d2868361298b565b95508019841693508086168417925050509392505050565b6000819050919050565b6000612a0f612a0a612a0584611fb1565b6129ea565b611fb1565b9050919050565b6000819050919050565b612a29836129f4565b612a3d612a3582612a16565b848454612998565b825550505050565b600090565b612a52612a45565b612a5d818484612a20565b505050565b5b81811015612a8157612a76600082612a4a565b600181019050612a63565b5050565b601f821115612ac657612a9781612966565b612aa08461297b565b81016020851015612aaf578190505b612ac3612abb8561297b565b830182612a62565b50505b505050565b600082821c905092915050565b6000612ae960001984600802612acb565b1980831691505092915050565b6000612b028383612ad8565b9150826002028217905092915050565b612b1b82612014565b67ffffffffffffffff811115612b3457612b3361212e565b5b612b3e8254612780565b612b49828285612a85565b600060209050601f831160018114612b7c5760008415612b6a578287015190505b612b748582612af6565b865550612bdc565b601f198416612b8a86612966565b60005b82811015612bb257848901518255600182019150602085019450602081019050612b8d565b86831015612bcf5784890151612bcb601f891682612ad8565b8355505b6001600288020188555050505b505050505050565b600081519050919050565b600082825260208201905092915050565b6000612c0b82612be4565b612c158185612bef565b9350612c25818560208601612030565b612c2e8161205a565b840191505092915050565b6000608082019050612c4e60008301876122df565b612c5b60208301866122df565b612c6860408301856122b5565b8181036060830152612c7a8184612c00565b905095945050505050565b600081519050612c9481611f22565b92915050565b600060208284031215612cb057612caf611eec565b5b6000612cbe84828501612c85565b91505092915050565b600081905092915050565b6000612cdd82612014565b612ce78185612cc7565b9350612cf7818560208601612030565b80840191505092915050565b6000612d0f8285612cd2565b9150612d1b8284612cd2565b91508190509392505050565b6000604082019050612d3c60008301856122df565b612d4960208301846122b5565b9392505050565b7f4e487b7100000000000000000000000000000000000000000000000000000000600052601260045260246000fdfea264697066735822122019cfea63626cea872f085eedb68afcefd35eb611b014ad078daf441caee6e8d564736f6c63430008140033",
  "linkReferences": {},
  "deployedLinkReferences": {}
}